:1000000000800010010800003108000033080000E3
:100010003508000037080000390800000000000023
:100020000000000000000000000000003B0800008D
:100030003D080000000000003F08000041080000EB
:100040004308000043080000430800004308000084
:100050004308000043080000430800004308000074
:100060004308000043080000430800004308000064
:100070004308000043080000430800004308000054
:100080004308000043080000430800004308000044
:100090004308000043080000430800004308000034
:1000A0004308000043080000430800004308000024
:1000B0004308000043080000430800004308000014
:1000C00043080000430800004308000008B5054845
:1000D000054B1B1A062B00D808BD044B002BFBD088
:1000E0009847F9E78001001083010010000000002C
:1000F00008B50748074B1B1A9B1003EBD373591025
:1001000000D108BD044A002AFBD09047F9E700BFA0
:1001100080010010800100100000000010B5064CA6
:10012000237843B9FFF7D2FF044B13B10448AFF370
:1001300000800123237010BD80010010000000002A
:100140003C7A000008B5074B1BB107480749AFF3DD
:1001500000800748036813B1064B03B19847BDE818
:100160000840C5E7000000003C7A00008401001050
:100170008001001000000000134B002B08BF114B42
:100180009D46A3F5803A00218B460F461148124A3E
:10019000121A02F010F90D4B002B00D098470C4BAF
:1001A000002B00D098470020002104000D000B48D0
:1001B00001F0F5FE02F0C0F82000290000F0E6F999
:1001C00001F092FC00000800008000100000000018
:1001D000000000008001001098040010B12200000F
:1001E00030B504464B693F2B19DC8A694B693F2ABD
:1001F00012DC086950F82350C869134418440B4BAB
:100200000340002B03DA013B63F001030133AB54DD
:100210008B6901338B61E8E701334B61E2E704311D
:100220000FC984E80F00204630BD00BF01000080E8
:10023000402110B501230A46044600F0A6F8002329
:10024000A3616361E369D3F1010338BF0023E36174
:1002500010BD000030B58DB004AD284600F078F830
:10026000184B194C04931948002301210B93256066
:1002700001F008FC0221154801F004FC2068036825
:100280001B6898470321114801F0FCFB2168684670
:100290000B685B68984704210C4801F0F3FB039B53
:1002A0001A6800231946D05C490000B901310133B6
:1002B000042BF8D1054801F0E5FB054801F0EEFC00
:1002C000D8E700BF68720000E00100109C01001038
:1002D000CDCCCC3D10B5154B8EB0154C00934FF0E6
:1002E000FF330193029303930493059306930793BB
:1002F000089309930A930B930C9320460D4B0E49D8
:100300000E4A01F063F820460D4C0E490E4A01F0EA
:100310001DFE20460021182202F04DF80B49204610
:100320000EB0BDE8104001F0F7BB00BF37C0092098
:100330009C01001035C0092032C0092034C00920BA
:10034000E401001029130000C80000103EC009207D
:10035000024A026000220261704700BF787200000A
:1003600038B5036904467BB1002563689D4206DA0F
:10037000236953F8250002F00DF80135F5E72069EF
:10038000BDE8384002F006B838BD2DE9F84398467C
:10039000036904460D46174643B143688B4205D1B5
:1003A0008368934202D1C368434516D02046FFF7C5
:1003B000D7FFA80001F0E6FF00262061AE4208DA70
:1003C0003846D4F8109001F0DDFF49F826000136D8
:1003D000F4E76560A760C4F80C80BDE8F88300000E
:1003E000074B186800B170474CF202014CF203024F
:1003F0000448C2F20901C2F2090200F09FBE00BF28
:10040000FC0200108C040010022808B50BDD084B1C
:10041000C21E53F82200002143F8221028B10368BD
:100420005A68904708BD002008BD4FF0FF3008BD56
:10043000FC0100100228F8B50D46174628DC1D49BE
:100440000A68002A2DD00FB32C46EE1914F8011BB0
:10045000ED43AB19184803F0010500F0B1FDB442BB
:1004600014D035B114F8011B134800F0A9FDB442B3
:100470000CD0254615F8011B0F4800F0A1FD61784E
:100480000D486C1C00F09CFDB442F2D13846F8BD1A
:100490000A4B033853F8200040B103681B689847A3
:1004A000F8BDFFF79DFF002FCED1EFE74FF0FF30F3
:1004B000F8BD00BFFC0200108C040010FC0100100D
:1004C000022810B50C4609DC0D4A106888B10D48A9
:1004D00000F020FD01212070084610BD0A4B0338B2
:1004E00053F8200040B103689B68984701460846CE
:1004F00010BDFFF775FFEAE74FF0FF31ECE700BFF3
:10050000FC0200108C040010FC010010022808B549
:1005100008DD074B033853F8200028B10168CA688A
:10052000904708BD012008BD4FF0FF3008BD00BF57
:10053000FC010010022808B508DD074B033853F80A
:10054000200028B103681B69984708BD002008BD3A
:100550004FF0FF3008BD00BFFC010010022808B5B5
:1005600004D84FF400504860002008BD01F02EFD73
:10057000092303604FF0FF3008BD00BF08B501201C
:1005800001F0B2FA704700BF704700BF08B5FFF72F
:10059000FBFFFFF7F7FFBDE80840FFF75BBE00BFBA
:1005A000084A13681818EFF30881884202D21060D5
:1005B00018467047044B0C221A604FF0FF33184660
:1005C000704700BFCC000010940400104FF440426C
:1005D000C4F20F02202330B4C2F8A031D2F8A00137
:1005E000800651D44FF44043C4F20F03002502218A
:1005F000C3F804110124C3F8A851AA20C3F8AC51D0
:1006000055220B25C3F80C411946C3F88450C3F892
:100610008C00C3F88C20C3F88040C3F88C00C3F86A
:100620008C20D1F888004FF440434201C4F20F03FC
:10063000F7D50322C3F88020AA205522C3F88C00E6
:100640001946C3F88C20D1F888004FF4404310F0CD
:10065000407FC4F20F03F6D048F2DE72C0F22842A7
:1006600005210020C3F80811C3F8C420C3F8C8014D
:100670001A6822F4704121F03A0040F4405242F0EE
:100680003A01196030BC7047D2F8A0114906A9D4CC
:10069000D2F8A0114906F7D5A4E700BF00B599B07C
:1006A00072B64CF232016846C2F2090101F070FAEA
:1006B0004CF2340106A8C2F2090101F069FA4CF2C9
:1006C00035010CA8C2F2090101F062FA4CF23701BF
:1006D00012A8C2F2090101F05BFA32E00699019A10
:1006E00003984B1C026059D00A9B079A0C981A6019
:1006F000431C4DD0129B0D99109A0133116041D0CB
:100700001399159A9620116001F0C2FA0098431CC3
:1007100032D0049B0199069A1960531C26D00C9B79
:1007200007980999013308601AD012990D9A0F9809
:100730004B1C02600ED0139A169B96201A6001F093
:10074000A7FA009B0133C9D117481849242201F0A8
:100750009FF9C3E714481549242201F099F9EAE703
:1007600011481249242201F093F9DEE70E480F499F
:10077000242201F08DF9D2E70B480C49242201F024
:1007800087F9C6E708480949242201F081F9B7E74B
:1007900005480649242201F07BF9ABE702480349EA
:1007A000242201F075F99FE7807200009872000022
:1007B0004FF46D43CEF20003F0B49F689A683B4655
:1007C000B2F1805F17D253F8045B4FF08054C43706
:1007D00025601A4652F8046B251D66605C68131D7F
:1007E0006C602C1DBB42F4D14FF46D424FF080532E
:1007F000CEF200029360103043F82010F0BC704736
:100800000649074A074B9A42BEBF51F8040B42F80B
:10081000040BF8E70448804704480047487A000082
:10082000C800001080010010CD0500007901000013
:10083000FEE7FEE7FEE7FEE7FEE7FEE7FEE7FEE790
:10084000FEE7FEE770B503680024C4F20104A3428A
:1008500059D038DD4FF40046C4F20906B3424FD0F8
:100860004FF44044C4F20904A34232D1294C082574
:10087000002A32D101290CD04268274CC2EBC206B3
:1008800004EBC60494F8356094F836203034F24214
:1008900018D1012202FA01F6D1F1010138BF00217D
:1008A00002FA01F15C6824EA06045C6000684368AF
:1008B000194207D102FA05F24FF46141CEF200016C
:1008C000C1F8802070BD4FF44045C4F20005AB4232
:1008D0001CD000242546002ACCD0012606FA01F0BF
:1008E0005A686DB210435860284606FA05F521464D
:1008F000FFF75EFF4FF46143CEF200031D6070BD51
:10090000064C0725B4E7064C0625B1E7054C05253E
:10091000AEE700BF510A00000403001029090000DF
:10092000F10900008D09000008B54FF40043C4F23E
:1009300009039A68C2F3420101291ED0022900D09E
:1009400008BD104A506F411C0AD0D2F88010906F39
:10095000086092F8A61019B9586820F00101596092
:10096000106F48B1074B93F8A620002AE8D0002169
:10097000054B1A68904708BD08BD0248006F002863
:10098000F6D1DDE7040300100003001008B54FF4B2
:100990004043C4F200039A68C2F3420101291DD00A
:1009A000022900D008BD104A5068411C09D01169C5
:1009B0009068086092F8361019B9586820F0010163
:1009C0005960106848B1084B93F83620002AE9D0E6
:1009D0000021064B1A68904708BD08BD0248006810
:1009E0000028F6D1DEE700BF04030010000300106A
:1009F00008B50023C4F201039A68C2F34201012939
:100A00001DD0022900D008BD0F4AD06B411C09D06F
:100A1000916C106C086092F86E1019B9586820F04B
:100A200001015960906B48B1074B93F86E20002A82
:100A3000E9D00021054B1A68904708BD08BD02485F
:100A4000806B0028F6D1DEE70403001000030010DD
:100A500008B54FF44043C4F209039A68C2F3420157
:100A6000012921D0022900D008BD124AD2F8AC00D9
:100A7000411C0BD0D2F8B810D2F8B000086092F840
:100A8000DE1019B9586820F001015960D2F8A800A9
:100A900048B1084B93F8DE20002AE5D00021064B30
:100AA0001A68904708BD08BD0248D0F8A800002881
:100AB000F5D1D9E704030010000300102DE9F04F31
:100AC0004FF440420368C4F209028DB0934209908A
:100AD0008A4600F3AA810020C4F20100834200F09C
:100AE000B18100F386804FF44041C4F200018B4293
:100AF0000FD14FF44042C4F20F02D2F8A84124F0C3
:100B0000C000C2F8A801D2F8A81141F04004C2F810
:100B1000A841B0494FEA0A100C6808940899B4FB40
:100B2000F0F200FB121094B20494002800F07B81D4
:100B3000089E089BB7005D0001220021DDF820908F
:100B40000A952E460B970192CDF81CA003975546A7
:100B500006920591D346019800275FFA80F808F1C4
:100B6000FF3A0AF00104BE420294C0F24981039B9D
:100B7000079AB3FBF2F14809441C0198C4F34F04EF
:100B8000002C08BF012404FB00F0C300B9FBF3F202
:100B9000511CCBEB510001F0FEF9A84208DA584590
:100BA00000F01D8100270546CDF8188005970494B4
:100BB0004FF0010A079CD04504EB0B0C574640F25E
:100BC000BF800298002855D0002EC0F22281039BDE
:100BD0000198B3FBFCF2510901EB0A040AEB000E89
:100BE000C4F34F041CBB002F00F04C8102242046AC
:100BF00021E04FF40042C4F2090293424FF4404016
:100C000000F03181C4F20900834282D14FF44044A4
:100C1000C4F20F04D4F8AC1121F44022C4F8AC2182
:100C2000D4F8AC0140F48021C4F8AC1171E70FB1E5
:100C3000012CDBD9204600FB0EF3DA00B9FBF2F100
:100C4000481CCBEB5000CDF800C001F0A4F9A8423D
:100C5000DDF800C007DA584500F0C1800546CDF840
:100C60001880059704940AF1010A5FFA8AF7B845DB
:100C7000DC4465D9CDF80880D846D346E246002E3C
:100C8000C0F29480039C0198B4FBFAF35A09511CFA
:100C90000BEB0003C1F34F0424B9002F00F0F480E4
:100CA000022402E00FB1012CFAD904FB03F3DB00AC
:100CB000B9FBF3F0411CC8EB510001F06CF9A842FC
:100CC00007DA404500F08880029A054606920597AB
:100CD00004940BF1010B002EC2445FFA8BF76FDB1B
:100CE000039C019AB4FBFAF35809411C5A44C1F31E
:100CF0004F042CB9002F00F0C9800224234603E0E2
:100D00000FB1012CF9D9234603FB02F2D100B9FB44
:100D1000F1F0421CC8EB520001F03DF9A84206DA9E
:100D2000404559D0029B05460693059704940BF164
:100D3000010B029C5FFA8BF7BC42C2449FD8C346AA
:100D4000019900200F2953D0019A08990A9C531C3D
:100D5000894436190399079C0B9A01938B1804EB6D
:100D60000B010393079100283FF4F5AE0598069A0E
:100D7000099B40EA02111B68C8B21A7B049C42F02E
:100D800080021A73099B210A049C1B68E2B2099C29
:100D9000197121680A70236883F828002068027B93
:100DA00002F07F0101730DB0BDE8F08FB6FBFAF4DD
:100DB00022090199501C0BEB0103C0F34F046BE7B0
:100DC000B6FBFAF423090198591C0BEB0002C1F39E
:100DD0004F048EE7D0000010C346DDF8088001996B
:100DE00001200F295D46CDF8188005970494ABD1FA
:100DF000069B059A099C42EA0310C0B22368BCE72F
:100E0000079B0198B6FBF3F211094C1CC4F34F0485
:100E1000B6E6B6FBFCF3019C1A09511C0AEB040E62
:100E2000C1F34F04DEE61020A7E719489B221949B9
:100E300000F02EFE099C00202368C4F201008342CA
:100E40007FF44FAE4FF44040C4F20F00D0F8A82119
:100E500022F44071C0F8A811D0F8A84144F480727F
:100E6000C0F8A82155E6C4F20F00D0F8AC4124F434
:100E70004032C0F8AC21D0F8AC1141F48034C0F855
:100E8000AC4146E60124D5E601240EE701243AE709
:100E90007873000094730000F8B55D1E012D0746BD
:100EA0000C46164604D916481649FB2200F0F0FD00
:100EB000053C032C1DD8042E15D8701EC6B2032E77
:100EC0000ED8114B082253F826100801C3B244EA89
:100ED00085041443396844EA0300C3B20B73F8BDB8
:100EE00000231A46F3E709480649FE2200F0D0FD28
:100EF000E3E707480349FC2200F0CAFDDBE700BF37
:100F0000F073000094730000BC7500003C74000096
:100F1000187400000268137DDB07FCD5406809499E
:100F2000C0EBC00301EBC3035968043301311078EF
:100F300006D019695B680B60516841F0010353608A
:100F4000704700BF0403001038B543680446194ACF
:100F5000C3EBC300C300D118C869013011D01833E6
:100F6000D518696804354B1C18D068696B6802682D
:100F70001A4204D12168087DC0F3801038BD0020DA
:100F800038BD2268137D03F02000C2B262B991F827
:100F900034000F288CBF0020012038BD06480749C7
:100FA0002C2200F075FDE0E7002381F834300120A9
:100FB00038BD00BF0403001080720000C074000040
:100FC00038B504460D462046FFF7BEFF0028FAD08C
:100FD0002368EDB21D706068054AC0EBC00102EBEA
:100FE000C10393F83400411C83F8341038BD00BFAE
:100FF000040300102DE9F04F044625680020C4F2D8
:101000000100854283B0884692469B464BD060687B
:10101000002201920646464D4FEAC609C0EBC003C6
:10102000C6EB0902002705EBC30C4FF0FF3E05EBB2
:10103000C203394620463A46C3F81CE0C3F804E030
:101040008CF83570FFF7FEFBB8F1000F02D103B04A
:10105000BDE8F08F3749504600F0D2FD36490746CB
:10106000584600F0CDFDA8F1020101293CD9B8F1A4
:10107000010FECD1BAF1FF3FE9D000232068C4F2A0
:10108000010307219F42017215D1019A9AB1117C87
:10109000019A41F0400327495046137403B0BDE85C
:1010A000F04F00F07BBD2B7C666803F03F01297494
:1010B00060680195AFE7C6EB090605EBC600043092
:1010C0005146002200F03AFD61680123C1EBC102E4
:1010D00005EBC205204600211A4685F8353003B0DD
:1010E000BDE8F04FFFF7AEBBBBF1FF3F0CD00022D5
:1010F000C4F2010290420ED0C6EB090305EBC30017
:101100001C30594600F008FDB8F1030F9FD1BAF129
:10111000FF3FB2D19BE701980028EDD0017C019AF6
:1011200041F0800358461374034900F037FDEBE7A4
:1011300004030010E8720000987500002DE9F047E4
:101140000F46054671493846164600F067FD70495E
:101150000446304600F062FD0146204600F03EFDA8
:101160000446013000F0CA800023C4F201039C420F
:101170002C6000F0B8805BD84FF44040C4F200000F
:10118000844209D14FF44041C4F20F01D1F8C42088
:1011900042F00803C1F8C4304FF0010984F8089008
:1011A0002A684FF000084FF41651C2F80480284610
:1011B000FFF784FC082142464B462846FFF76CFEA9
:1011C0003846524900F0EAFC5149304600F0E6FC4E
:1011D000791C03D03846414600F0F0FD721C03D064
:1011E0003046002100F0EAFD0026C4F20106B442B8
:1011F00057D034D84FF44041C4F200018C425CD047
:101200006F684448C7EBC7014FF0FF3600EBC107DA
:1012100032460021284633467E60FE61FFF7EAFE33
:101220004FF44042C4F20002944252D0BDE8F0872D
:101230004FF40040C4F2090084424FF4404133D0DF
:10124000C4F209018C42A7D14FF44043C4F20F030A
:10125000D3F8C42042F00070C3F8C4009CE74FF4F8
:101260000040C4F20900844218D04FF44043C4F255
:1012700009039C42C4D103266E6026484FF0FF3418
:10128000C6EBC60100EBC1062246284600212346D4
:101290007460F461BDE8F047FFF7ACBE02266E60F3
:1012A000EBE701266E60E8E7C4F20F01D1F8C43025
:1012B00043F08072C1F8C4206EE7164E4FF0FF3441
:1012C000002169602246284623467460F461FFF7D6
:1012D00091FE114B11480124294608221C60BDE8EB
:1012E000F04701F05FB84FF44041C4F20F01D1F86C
:1012F000C40040F01003C1F8C4304DE70848094964
:101300005C2200F0C5FB2C6046E700BF2C75000096
:101310000C73000004030010FC0200108C04001089
:101320001C7500009473000010B5224B0446406801
:10133000236008B100F00FFEA06808B100F00BFEBA
:10134000E06808B100F007FE206908B100F003FE74
:10135000606908B100F0FFFDA06908B100F0FBFD75
:10136000E06908B100F0F7FD206A08B100F0F3FD74
:10137000606A08B100F0EFFDA06A08B100F0EBFD73
:10138000E06A08B100F0E7FD206B08B100F0E3FD72
:10139000606B08B100F0DFFDA06B08B100F0DBFD71
:1013A000E06B08B100F0D7FD206C08B100F0D3FD70
:1013B000204610BDD875000010B50446FFF7B4FFF5
:1013C000204600F0C8FD204610BD00BF70B50E4697
:1013D00090B096490293149B0160044601921598BF
:1013E000169A0393199B179D1899049005921A98C1
:1013F0001B9A08931E9B0695079109900A921C9DC3
:101400001D991F98209A0D93731C0B950C910E90AB
:101410000F9200F08581182000F0A2FD00210160EC
:1014200041608160C160016141613146054600F063
:10143000AFFB019E6560751C00F01E81182000F056
:101440008FFD0023036043608360C36003614361D9
:101450003146054600F09CFB029EA560701C00F022
:101460001181182000F07CFD0022314602604260AC
:101470008260C26002614261054600F089FB039E02
:10148000E560711C00F00481182000F069FD002166
:10149000016041608160C160016141613146054682
:1014A00000F076FB049E2561721C00F0F780182086
:1014B00000F056FD0023036043608360C360036156
:1014C00043613146054600F063FB059E6561731C70
:1014D00000F0EA80182000F043FD0022314602604F
:1014E00042608260C26002614261054600F050FBCA
:1014F000069EA561751C00F0DD80182000F030FD0F
:101500000021016041608160C1600161416131463B
:10151000054600F03DFB079EE561701C00F0D080A1
:10152000182000F01DFD00233146036043608360F6
:10153000C36003614361054600F02AFB089E2562F3
:10154000711C00F0C380182000F00AFD0022026028
:1015500042608260C260026142613146054600F02D
:1015600017FB099E6562721C00F0B680182000F01F
:10157000F7FC0021016041608160C160016141614F
:101580003146054600F004FB0A9EA562731C00F07C
:10159000A980182000F0E4FC00233146036043607A
:1015A0008360C36003614361054600F0F1FA0B9E5E
:1015B000E562751C00F09C80182000F0D1FC002230
:1015C000026042608260C26002614261314605464B
:1015D00000F0DEFA0C9E2563701C00F08F8018204E
:1015E00000F0BEFC0021016041608160C1600161CA
:1015F00041613146054600F0CBFA0D9E6563711CD2
:1016000000F08280182000F0ABFC0023314603601C
:1016100043608360C36003614361054600F0B8FA2C
:101620000E9EA563721C74D002E000BFD875000046
:10163000182000F095FC0022314602604260826072
:10164000C26002614261054600F0A2FA0F9EE563A6
:10165000731C63D0182000F083FC002101604160FE
:101660008160C160016141613146054600F090FA38
:101670002564204610B070BD029E0025701CA56038
:101680007FF4EFAE039E0025711CE5607FF4FCAE95
:10169000049E0025721C25617FF409AF059E00257C
:1016A000731C65617FF416AF069E0025A561751C4D
:1016B0007FF423AF079E0025701CE5617FF430AFF7
:1016C000089E0025711C25627FF43DAF099E002510
:1016D000721C65627FF44AAF0A9E0025731CA562E6
:1016E0007FF457AF0B9E0025E562751C7FF464AF55
:1016F0000C9E0025701C25637FF471AF0D9E0025A4
:10170000711C65637FF47EAF0E9E0025721CA5637D
:101710008ED10F9E0025731CE5639BD10025A7E7A2
:10172000002586E6F8B5466804460D465EB1336886
:1017300001F00107013300F01981002F40F0D28041
:10174000306972680260A6685EB13368C5F340070D
:10175000013300F01481002F40F0C08030697268BE
:101760000260E6685EB13368C5F38007013300F0BC
:101770000F81002F40F0BE803069726802602669D8
:101780005EB13368C5F3C007013300F00A81002F52
:1017900040F0AC8030697268026066695EB133689F
:1017A000C5F30017013300F01781002F40F0B2801D
:1017B000306972680260A6695EB13368C5F340178C
:1017C000013300F01281002F40F0A0803069726870
:1017D0000260E6695EB13368C5F38017013300F03B
:1017E000E980002F40F08E80306972680260266ABE
:1017F00056B13368C5F3C017013300F0E480002F01
:101800007CD1306972680260666A5EB13368C5F384
:101810000027013300F01681002F40F093803069DB
:1018200072680260A66A5EB13368C5F3402701336F
:1018300000F01181002F40F08180306972680260F1
:10184000E66A56B13368C5F38027013300F00C8196
:10185000002F7FD1306972680260266B4EB1336809
:10186000C5F3C027013379D0002F6FD1306972687A
:101870000260666B56B13368C5F30037013300F080
:10188000CF80002F56D1306972680260A66B56B1C6
:101890003368C5F34037013300F0CB80002F45D1CA
:1018A000306972680260E66B56B13368C5F3803701
:1018B000013300F0A380002F34D1306972680260D8
:1018C000246C54B12068C5F3C035431C00F09F80E0
:1018D000002D23D1216962680A60F8BDF16876683D
:1018E0000E603EE7F16876680E602CE7F168766876
:1018F0000E6052E7F16876680E6040E7F16876683E
:101900000E6081E7F16876680E6070E7F1687668CE
:101910000E605EE7F16876680E604CE7E368606829
:101920001860F8BDF16873680B60C9E7F168766804
:101930000E60B8E7F16876680E60A7E7F168766830
:101940000E607DE7F16876680E606BE7F168766897
:101950000E608EE7F16876680E607EE7474848497A
:10196000242200F095F8002F80D0EFE74348444947
:10197000242200F08DF8002F3FF4E2AEB2E73F489A
:101980003F49242200F084F8002F3FF4E7AEA5E79A
:101990003A483B49242200F07BF8002F3FF4ECAE9C
:1019A000A8E736483649242200F072F8002F3FF4A9
:1019B000F1AE9BE731483249242200F069F8002F4C
:1019C0003FF412AF9EE72D482D49242200F060F825
:1019D000002F3FF416AF91E728482949242200F050
:1019E00057F8002F3FF4E4AE94E72448244924221A
:1019F00000F04EF8002F3FF4E9AE87E71F4820497A
:101A0000242200F045F8002F3FF457AF8AE71B4827
:101A10001B49242200F03CF8002D3FF45BAF7DE72A
:101A200016481749242200F033F8002F3FF42BAF5B
:101A300080E712481249242200F02AF8002F3FF4D0
:101A40002FAF73E70D480E49242200F021F8002F34
:101A50003FF4E5AE76E709480949242200F018F87A
:101A6000002F3FF4EAAE69E704480549242200F05C
:101A70000FF8002F3FF4EEAE6CE700BF807200005D
:101A80009872000010B50446FFF74CFE204610BDCA
:101A900010B540F23413C1F200031B6882B0044653
:101AA000D8680B4647F2E0510092C0F2000122468E
:101AB00000F012FC02B0BDE81040FEF7EFBD00BF21
:101AC0000FB400B540F2341283B004ABC1F200028F
:101AD00053F8041B10681A46C068019300F03AFEE0
:101AE000012000F001F800BF38B50A4C0546236814
:101AF000986800F01FFB2068C06800F01BFB00F036
:101B00004BF820B905B9FEE7FEF7C8FDFBE700F08A
:101B10009FF8F7E73401001038B50D46044600F091
:101B2000E3F86B1C09D00021204600F0F9F82046AC
:101B30000321BDE8384000F0EFB838BD70B50D4660
:101B40000446164600F0D0F8691C14D0236801330F
:101B500012D066B92069626802600121204600F057
:101B6000DFF820460221BDE8704000F0D5B8E168FA
:101B700063680B60F1E770BD034804492422FFF756
:101B800087FF002EE6D0F2E7807200009872000016
:101B90000022FFF7D3BF00BF00F066B8431C10B5AA
:101BA000044618D00B68581C04D10FE051F80C3FC4
:101BB0005A1C0BD09C42F9D12046896800F0D2F81B
:101BC00020460221BDE8104000F0F8B80248BDE808
:101BD0001040FFF775BF10BD14760000884208B5AD
:101BE0000AD0421C07D0013106D00448FFF768FF35
:101BF0004FF0FF3008BD084608BD00BF2876000042
:101C00000B685A1C04D107E051F80C3F5A1C03D052
:101C10008342F9D1486870471846704708B5431C9D
:101C20000CD00B685A1C04D109E051F80C3F5A1C27
:101C300005D09842F9D14868411C00D008BD03483E
:101C4000FFF73EFF4FF0FF30F8E700BF3C760000A3
:101C500030B585B06D46182420462946ABBE0446F3
:101C6000204605B030BD00BF4EF6F053CEF2000363
:101C7000186800F00100704738B5054600F016F905
:101C8000044600F013F9001BA842FAD338BD00BF88
:101C90004FF47A7303FB00F0FFF7EEBF4FF41051DF
:101CA00008B5C4F6741105F041F905F08FFABDE8E6
:101CB0000840FFF7E1BF00BF431C10B5044609D040
:101CC0002046002100F04EF804F01F04012000FA25
:101CD00004F010BD024803491522FFF7D9FEEFE7D3
:101CE0005C7600007076000038B54A1C04460D464C
:101CF00021600FD00846FFF7DFFF25F01F0505F133
:101D0000180105F11C0205F114036060E160226115
:101D10006361A56038BD00BF006800F04FB800BF28
:101D200038B50368044601330D4611D035B9A068B3
:101D30006168026822EA0102026038BD012D00D00C
:101D400038BDA0686268016841EA0203036038BDDB
:101D5000024803492C22FFF79BFEE7E78072000050
:101D60007076000038B5431C04460D461CD004F1C3
:101D70006040A0F51C2101F00F035800032202FA75
:101D800000F205FA00F54FF440430809C4F20203DB
:101D900053F8201021EA020243F8202053F82010C3
:101DA0000D4343F8205038BD024803491522FFF780
:101DB0006FFEDCE75C760000C8760000421C70B560
:101DC00004460E4631D004F16040A0F51C20C6F355
:101DD000800400F01F0504FA05F542094FF4404362
:101DE000C4F202031A3253F8221021EA050143F823
:101DF000221053F822100D4343F82250A4B900F0EA
:101E00000F046200032101FA02F106FA02F200094E
:101E1000103053F8204024EA010143F8201053F811
:101E200020100A4343F8202070BD034803492022B4
:101E3000FFF72EFEC7E700BF5C760000C876000003
:101E4000174A38B513684BBB4FF44041C4F20F0139
:101E5000D1F8C40001254FF480441560C4F2090490
:101E600040F400000F4AC1F8C400236711684DF622
:101E700083638808C4F21B33A3FB0012910C4B1E32
:101E8000022060600849E36004206560FEF790FC72
:101E90004FF46141CEF2000110220A6038BD00BF4C
:101EA000E4030010D0000010011F000008B5054B2E
:101EB000186808B9FFF7C4FF4FF48041C4F2090164
:101EC000886808BDE40300104FF48043C4F209039E
:101ED00098615A6942F00100586170474FF480439D
:101EE000C4F209035A6922F001005861704700BF2B
:101EF0004FF48043C4F2090301221A60704700BF07
:101F000070B5FFF7F5FF0F4C0F4E206870B10568F4
:101F1000FFF7CCFF281A00280CDC21683268C8685B
:101F20002060002AF2D088689047EEE7BDE8704054
:101F3000FFF7D4BF2368D3E90001BDE87040FFF785
:101F4000C3BF00BFE8030010EC03001003460846BF
:101F5000194600F02BB808B100F01CBA7047000019
:101F600010B5002814BF04460124204600F00AFAE8
:101F700030B9044B1B680BB900F006F89847F4E73A
:101F800010BD00BFF003001008B5062001F056FA9E
:101F9000012005F055F90028B8BF404270470146BE
:101FA00000200246034602F081BA000070B5064CDC
:101FB00006460D4613462CB131462A46022002F051
:101FC00075FA70BD204670BDAD440000014B186825
:101FD000704700BF340100108A892DE9F0410546A1
:101FE00010070C4657D44B68002B02DC0B6C002BFF
:101FF00018DDE66AB6B102F48052002392B22F686F
:102000002B600AB1626D10E0216A28460123B047B7
:10201000411C024609D12B683BB11D2B01D0162B68
:1020200046D12F600020BDE8F081A3895B0705D56C
:102030006368D21A636B0BB1236CD21AE66A284626
:10204000216A0023B047461CA28905D12B681BB129
:102050001D2B01D0162B19D1002363602369D104F5
:10206000236004D5421C01D12B6803B96065616B04
:102070002F600029D6D004F14403994202D02846AB
:1020800000F0A2F900206063BDE8F08142F0400258
:10209000A281BDE8F0810E69002EC3D00B680E60EE
:1020A000C6EB030893070CBF4B6900238B6012E05B
:1020B000A3894FF0FF3043F04003A381BDE8F081D6
:1020C000A76A2846216A32464346B8470028EFDD12
:1020D0000644C0EB0808B8F1000FF1DCA2E70000ED
:1020E00038B50B6905460C46DBB118B183690BB9ED
:1020F00000F072F80C4B9C4201D16C6808E00B4B6D
:102100009C4201D1AC6803E0094B9C4208BFEC68DB
:10211000B4F90C302BB128462146BDE83840FFF712
:102120005BBF002038BD00BF207700004077000073
:1021300060770000014620B9044B0549186800F09B
:10214000DDB8044B1868FFF7CBBF00BF84770000F1
:10215000E120000034010010014900F0CFB800BFB9
:10216000F1510000002310B5044603604360836012
:1021700081814366C28103614361836119465C309A
:10218000082200F018F9054B24626362044BA36235
:10219000044BE362044B236310BD00BFBD34000059
:1021A000DF340000173500003B35000070B54B1ED2
:1021B00068255D430E4605F1740100F049F90446B7
:1021C00040B1002180E842000C30A06005F16802B7
:1021D00000F0F1F8204670BD836910B5044633BBAA
:1021E0008364C3640365124B124A1B68826298427F
:1021F00004BF0123836100F01FF86060204600F0F7
:102200001BF8A060204600F017F80421E0600022CF
:102210006068FFF7A7FFA06809210122FFF7A2FF6E
:10222000E06812210222FFF79DFF0123A36110BD88
:102230008477000059210000F8B51B4B07461E6843
:10224000B36913B93046FFF7C7FF4836B4687368FF
:10225000013B04D4B4F90C5075B16834F8E7336825
:102260002BB938460421FFF7A1FF306008B136686A
:10227000ECE70C233B60F8BD4FF6FF73E3810123CD
:10228000A38165662560A560656025616561A561BE
:1022900004F15C002946082200F08DF86563A5630F
:1022A000A564E5642046F8BD847700007047704758
:1022B00038B5074B074C1D46E41AA41024B1013C65
:1022C00055F824209047F9E7BDE8384004F0C0BF36
:1022D0007C010010800100100EB403B5014603AB71
:1022E000054853F8042B0068019300F02FF902B061
:1022F0005DF804EB03B07047340100102DE9F8439A
:102300008046894600F14804002694B1A5686768B4
:10231000013F0CD4AB89012B07D9B5F90E3001333D
:1023200003D040462946C84706436835F0E724688D
:10233000EBE73046BDE8F88370B50E4B0E4D002438
:10234000ED1AAD101E46AC4204D056F8242090473A
:102350000134F8E704F076FF084D094B0024ED1A2C
:10236000AD101E46AC4204D056F8242090470134EC
:10237000F8E770BD74010010740100107C010010BA
:1023800074010010024B0146186800F061B800BFEC
:1023900034010010024B0146186800F015B800BF68
:1023A0003401001010B50023934203D0CC5CC45418
:1023B0000133F9E710BD02440346934202D003F80B
:1023C000011BFAE77047000030B500293CD051F8F6
:1023D000042C0B1F1D49002AB8BF9B180A680C4625
:1023E00012B95A600B6030BD93420DD2196858186B
:1023F000904203D15A581144426819605A602360D0
:1024000030BD994203D80A4651680029F9D11468B1
:1024100015199D420AD11B682344D01888421360C5
:1024200012D10868034413604B680CE002D90C23F6
:10243000036030BD18681C188C4203D10C684968D1
:10244000204418605960536030BD00BFF80300108D
:1024500070B5CD1C25F0030508350C2D38BF0C25B3
:10246000002D064603DA0C233360002070BD8D4238
:10247000F9D3204B1C6818462146A1B10B685B1BA1
:102480000ED40B2B03D90B60CC18CD501FE08C421F
:1024900002D1626802601AE04B6863600C4616E085
:1024A0000C464968E9E7144C23681BB9304600F034
:1024B00089FF20602946304600F084FF431C014616
:1024C000D1D0C41C24F0030484420AD1256004F155
:1024D0000B00231D20F00700C31A09D05A42E25016
:1024E00070BD3046611A00F06DFF0130EED1BAE7E1
:1024F00070BD00BFF8030010F4030010936810B51E
:10250000013B002B936005DA9469A34208DBCBB250
:102510000A2B05D01368581C10601970C8B210BD82
:10252000BDE8104001F0EEBEF8B505460E46144673
:10253000D718BC4208D0284614F8011B3246FFF7D2
:10254000DDFF431CF5D100E00020F8BD2DE9F0438C
:102550009DB00D4617460393064618B183690BB923
:10256000FFF73AFE734B9D4201D1756808E0724B4C
:102570009D4201D1B56803E0704B9D4208BFF568EC
:10258000AB8918070AD52B6943B10023099320238F
:102590008DF8293030238DF82A3038E0304629462E
:1025A00001F016FF0028F0D04FF0FF30BEE0039A94
:1025B000111D12680391002A70DB07920134237801
:1025C0002E2B7DD05E4F21783846032203F0E2F9AE
:1025D00030B1C71B4020B840049B0134034304932F
:1025E000217858480622671C8DF8281003F0D2F98C
:1025F000002800F08980544B002B7CD1039B0733CB
:1026000023F0070308330393099B434409933B4694
:102610001C4613F8012B1AB9B4EB07090ED002E0DF
:10262000252AF5D1F8E7304629463A464B46FFF7CA
:102630007BFF013075D0099B4B4409932378002B15
:102640006FD000234FF0FF32049307930592069357
:102650008DF853301A9304F101093C4F4C4638462B
:102660002178052203F096F909F10109049B28B1AC
:10267000C71B0120B84003430493EEE7D90644BFCB
:1026800020228DF853201A0744BF2B228DF85320A7
:1026900022782A2A8BD0079B214605E0524243F03C
:1026A00002030792049389E70C4622780131303AFD
:1026B000092A03D80A2000FB0323F5E707937EE7E6
:1026C00063782A2B09D1039B02341A1D1B680392DD
:1026D000002BB8BF4FF0FF330BE0611C00230C460A
:1026E00022780131303A092A03D80A2000FB03235B
:1026F000F5E7059366E703AB0093304604A92A4645
:10270000134B00F0C9F807E003AB0093304604A96F
:102710002A460F4B00F040FBB0F1FF3F80467FF4AC
:1027200073AFAB895B063FF53FAF09981DB0BDE8BD
:10273000F08300BF20770000407700006077000042
:102740008E770000927700009928000088770000BB
:102750002925000030B51346044A05460C4610688A
:1027600029462246BDE83040FFF7F0BE3401001094
:102770002DE9D04F88B014991E46002E129B21F0EF
:10278000200B92463246B6BF2D22002206F10046AB
:10279000BBF1460F109F139C1A7004D0BBF1450F7C
:1027A00003D1013701E0032300E002238DE8880014
:1027B00006AB039307AB049302945246334601F0F1
:1027C00073FFBBF1470F804602D1119BDB0725D574
:1027D000BBF1460F08EB07090FD198F80030302BFA
:1027E00009D1504631460022002304F0D5FA10B931
:1027F000C7F10107276023689944504631460022FB
:10280000002304F0C9FA08B1CDF81C90079B4B4592
:1028100004D25A1C079230221A70F7E7079B4046F1
:10282000C8EB0302159B1A6008B0BDE8D08F73B5E2
:102830000346002903F8022B03DA49421A462D24E5
:1028400001E01A462B24092944701BDD0DF1060412
:102850000A2691FBF6F506FB1511092D01F1300151
:10286000234604F801192946F2DC05F1300103F88A
:10287000011D0DF107018B420AD213F8011B02F86A
:10288000011BF6E730241A46214402F8024B597026
:10289000101A02B070BD00002DE9F04F8FB00C4649
:1028A00016461F46DDF86090054603F011F8D0F893
:1028B00000A0504600F045FE00230C93D9F80030EC
:1028C0000990073323F0070303F10802D3E900015D
:1028D00094F81880C9F80020C4E9120100F050FDF6
:1028E0000128D4E9120117D10022002304F05EFA76
:1028F00010B12D2384F84330904B914AB8F1470F23
:102900008CBF9146994603232361236823F0040377
:1029100023604FF0000B86E000F032FD236848B9D9
:10292000884A8949B8F1470F8CBF894691460322EE
:102930002261EBE7626828F0200B511C01D10622CE
:1029400004E0BBF1470F02D10AB90122626060685E
:1029500043F480618DE80300D4E912230DF12B00CC
:1029600002900BA803900CA805900020216006900F
:10297000CDF810802846FFF7FBFEBBF1470F8146DC
:102980000B9909D1C81C02DB6368994230DDA8F1BC
:1029900002085FFA88F802E0B8F1650F12D8013931
:1029A000424604F150000B91FFF741FF0C9A834619
:1029B0008318012A236102DC2268D2072DD5013356
:1029C00023612AE0B8F1660F14D10029636807DD9E
:1029D000216113B92268D0071CD501330B4418E0DC
:1029E00013B92268D20701D5023312E0012310E0A7
:1029F0004FF067080C9A914205DB23682161D807E4
:102A000008D54B1C05E00029D4BFC1F10203012306
:102A100013442361A1654FF0000B9DF82B3013B1D7
:102A20002D2384F843300097284621460DAA3346CB
:102A300000F040F9013002D14FF0FF3036E1236859
:102A40005A0504D4284631464A46236908E1B8F1BC
:102A5000650F40F2CB80D4E912010022002304F07C
:102A60009BF900282AD028463146384A0123B84726
:102A70000130E1D00C9B0B9A9A4207DB2368D80700
:102A800004D423689B0700F1F880FDE02846314616
:102A90005246099BB8470130CED04FF000080C9B3E
:102AA000013B9845EDDA2846314604F11A0201232C
:102AB000B8470130C0D008F10108F0E70B9B002BAC
:102AC00028DC28463146214A0123B8470130B3D0DB
:102AD0000B9B23B90C9B13B92368D907D1D5284682
:102AE00031465246099BB8470130A5D04FF0000847
:102AF0000B9B28465B429845314608DA04F11A02DE
:102B00000123B847013097D008F10108F0E74A46A1
:102B10000C9BA5E0A36D0C9A9A42B4BF93469B46CA
:102B2000BBF1000F02DC4FF000081CE028463146E4
:102B30004A465B46B8470130F5D17DE799770000FA
:102B40009D770000A1770000A5770000A97700001D
:102B50002846314604F11A020123B84701303FF4F8
:102B60006BAF08F10108A36D2BEAEB729A1A90453E
:102B7000EEDB09EB03080B9A0C9B9A420FDB2368F0
:102B8000DA070CD40C9B0B9A9944C8EB09099B1AE1
:102B90009945A8BF9946B9F1000F08DC0FE0284617
:102BA00031465246099BB8470130EBD144E72846ED
:102BB000314642464B46B84701303FF43DAF4FF0F7
:102BC00000080AE02846314604F11A020123B847FA
:102BD00001303FF431AF08F101080B9B0C9A29EA50
:102BE000E971D31A5B1A9845ECDB4AE70C9A012A83
:102BF00001DCDB0739D5284631464A460123B84770
:102C000001303FF419AF284631465246099BB84778
:102C100001303FF411AFD4E912010022002304F087
:102C2000BBF810B14FF0000811E00C9B284631466C
:102C300009F10102013B1CE02846314604F11A0269
:102C40000123B84701303FF4F7AE08F101080C9BAF
:102C5000013B9845F0DB2846314604F150025B46C3
:102C6000B84701307FF40DAFE6E6284631464A46C4
:102C70000123B8470130EED1DEE64FF00008E268EC
:102C80000D9BD31A984505DBE0680D9B9842B8BFB1
:102C900018460BE02846314604F119020123B847D3
:102CA00001303FF4C9AE08F10108E8E70FB0BDE814
:102CB000F08F00BF2DE9F84315461F468A680B695F
:102CC00006469A42A8BF13462B6091F843200C4653
:102CD000DDF820800AB101332B602368990602D504
:102CE0002B6802332B60236813F006091DD094F87B
:102CF00043302268003318BF012392061FD5E11824
:102D0000302081F843005A1C94F8451022440233C5
:102D100082F8431013E03046394604F119020123CA
:102D2000C047013007D009F10109E2682B68D31AC6
:102D30009945F0DBDBE74FF0FF30BDE8F883304624
:102D4000394604F14302C0470130F4D023682A68B1
:102D500003F00603E168042B08BFC2EB01052369F9
:102D6000A2680CBF25EAE57500259A42C4BFC3EBF3
:102D70000203ED184FF00009A9450ADA304639463A
:102D800004F11A020123C0470130D4D009F101092E
:102D9000F2E70020BDE8F8832DE9FF470E7E80466C
:102DA0006E2E0C4691469A460C9D01F1430000F0B0
:102DB000A58011D8632E22D009D8002E00F0B28051
:102DC000582E40F0C28081F845607C4A4FE0642E66
:102DD0001ED0692E1CD0B8E0732E00F0A78009D851
:102DE0006F2E2BD0702E40F0B0800B6843F0200384
:102DF0000B6038E0752E21D0782E34D0A5E02B68FA
:102E000001F142071A1D1B682A6081F84230A0E0D8
:102E100022682B6812F0800F03D01A1D2A601D68EB
:102E200005E05706F9D51A1D2A60B3F90050002DA8
:102E300039DA2D236D4284F8433034E022682B6860
:102E400012F0800F03D01A1D2A601D6804E0560698
:102E5000F9D51A1D2A601D88237E584A6F2B14BF8E
:102E60000A2308231BE07823554A84F84530236859
:102E7000296813F0800F01F104062E6001D00D685F
:102E800002E05D06FBD50D88D90744BF43F020035F
:102E900023601DB9236823F0200323601023002141
:102EA00084F8431001E0454A0A236668002EA660B4
:102EB00003DB216821F00401216005B96EB104F142
:102EC0004201B5FBF3F603FB1655555D0F4601F8BD
:102ED00001593546002EF4D100E00746082B0AD1EF
:102EE0002368DA0707D5626823699A4203DC302336
:102EF00007F8013C013FC01B20612FE009682B68E7
:102F000011F0800F626903D0191D29601B6808E069
:102F100011F0400F03F1040129601B6801D01A80F1
:102F200000E01A6000232361074617E02B681A1D92
:102F30002A601F68384600F004FB636820619842ED
:102F400088BF23612369636005E004F1420784F8C8
:102F5000426001232361002384F84330CDF800A0B0
:102F60004046214603AA4B46FFF7A4FE013002D19A
:102F70004FF0FF301FE0404649463A462369D047AC
:102F80000130F5D023689B0705D4E068039B984285
:102F9000B8BF18460FE00025E268039BD31A9D4294
:102FA000F3DA4046494604F119020123D0470130C3
:102FB000DED00135F0E704B0BDE8F087AB77000064
:102FC000BC7700002DE9F04F99468B6816465A1ED3
:102FD000B2F5AE7F87B007460C4607D96FF4AE72E4
:102FE00003EB020C40F25D138B6001E04FF0000C2C
:102FF0002368A04643F4F063002548F81C3BC34611
:103000002A4605950495AA460395A168002900F073
:10301000D98033681B78492B6CD016D8392B0DD842
:10302000312B3ED22D2B44D002D82B2B41D0C9E0DE
:103030002E2B00F08180302B22D0C3E0452B00F0F6
:103040008480462B6CD0412B0BE0652B7DD00AD8B9
:10305000542B69D002D84E2B33D0B3E0592B67D014
:10306000612B43D0AEE06E2B2BD004D8662B57D00B
:10307000692B3FD0A6E0742B56D0792B58D0A1E015
:10308000206810F4807F0CD020F0800020600AF1CE
:10309000010ABCF1000F78D001310CF1FF3CA160B6
:1030A00073E05119002940F08D80216821F4C0712E
:1030B00005E02168080640F1858021F0800121604B
:1030C0005FE06AB9BAF1000F0CD1216801F4E06049
:1030D000B0F5E06F06D121F4F0612160012250E0EB
:1030E000022A4DD0012D18D0042D15E0012A69D1F6
:1030F000022246E06DB9BAF1000F66D1216801F4F1
:10310000E060B0F5E06F64D121F4F0612160012549
:1031100037E0032D01D0052D54D10135EDB230E05B
:10312000022D4FD103252CE0062D4BD1072528E099
:10313000072D47D1082524E02168880542D521F4D0
:1031400020712160CDF80CA01BE0216801F4A06083
:10315000B0F5806F04D0480534D5BAF1000F38D0EF
:10316000880505D40398CDF814B0C0EB0A0004908C
:1031700021F4F06141F4C07121604FF0000A00E0D9
:1031800003228BF800300BF1010BA368013BA36015
:103190002369013323617368013B002B736003DDF6
:1031A00033680133336030E70292CDF804C0D4F8BD
:1031B0008031384631469847029ADDF804C000282D
:1031C0003FF423AFBAF1000F03D0236823F48073D8
:1031D0002360013A012A11D8C3455A460CD9D4F8C4
:1031E0007C3112F8011C38463246984723690BF1AE
:1031F000FF3B013B2361EFE70125BBE06B1E062B84
:103200002DD8022D1BD9DC46CBEB0502624402F01F
:10321000FF02032A0ED91CF8011D3246CDF804C066
:103220003846D4F87C3198472269DDF804C0013A69
:103230002261E9E7033DEDB2C5EB0B0B0FE0C3459F
:103240005A46D9D9D4F87C3112F8011C3846324696
:10325000984723690BF1FF3B013B2361EFE72368AC
:10326000DA052FD55B050FD5C3455A46C4D9D4F826
:103270007C3112F8011C38463246984723690BF11D
:10328000FF3B013B2361EFE71BF8011C2369652924
:1032900003F1FF330BF1FF3523610DD045290BD02E
:1032A000D4F87C3138463246984723691BF8021C13
:1032B000013BABF102052361D4F87C31384632463C
:1032C0009847AB46256815F0100552D18BF8005091
:1032D000236803F4C063B3F5806F05D10398C0EB96
:1032E0000A035A426BB916E0049AA2B1059B2A461A
:1032F000591C38460A2300F083FF049BDDF814B004
:10330000C21A04F26F139B4528BF04F5B77B5846D9
:103310001A4900F0AFF838460022414600F064F93F
:103320002268064612F0020F0F46D9F8003003D08B
:103330001A1DC9F8002006E012F0040F03F1040280
:10334000C9F8002003D01B68C3E900670DE0D3F87B
:10335000008000F015F810B900F044F803E03046A2
:10336000394603F093FDC8F80000E3680133E360D9
:1033700000E00025284607B0BDE8F08FCD770000BB
:1033800031F0004310B500D178B10C4AA3F5801498
:1033900094420CD9B3F5801F0BD3094A93420AD14A
:1033A000D0F1010038BF002010BD022010BD042064
:1033B00010BD032010BD002010BD00BFFFFFDF7F48
:1033C0000000F07F38B5064C002305460846236010
:1033D000FDF7E6F8431C02D1236803B12B6038BD2A
:1033E00094040010004870470000C07F1F2938B5C2
:1033F00005460C4604D9162303604FF0FF3038BD54
:10340000426C12B152F821304BB9284600F030F826
:10341000224601462846BDE8384000F017B8012B87
:103420000AD0591C03D116230360012038BD0025A2
:1034300042F8245020469847002038BD024B0146F0
:103440001868FFF7D3BF00BF3401001038B5074C30
:103450000023054608461146236003F0E7FE431C9F
:1034600002D1236803B12B6038BD00BF9404001063
:1034700003F0D2BE0EB400B54FF402719CB0ADF8AB
:1034800014106FF00041049107914FF6FF711DABCE
:10349000ADF81610084953F8042B029006900868FE
:1034A00002A9019302F02EFF029B00221A701CB0A9
:1034B0005DF804EB03B070473401001010B50C4602
:1034C000B1F90E1003F00AF8002803DB636D034422
:1034D000636510BDA38923F48053A38110BD2DE93A
:1034E000F0411D468B890746DB050C46164605D57F
:1034F000B1F90E100022022302F0EEF9A38938463A
:1035000023F48053A381B4F90E1032462B46BDE854
:10351000F04100F04BBF10B50C46B1F90E1002F0AF
:10352000DBF9431CA38903D123F48053A38110BD8D
:1035300043F48053A381606510BDB1F90E1001F012
:1035400011B8034613F8012B002AFBD1181A0138D1
:10355000704770B58AB10B4605461C7810F8016BB0
:103560000131B44201D1012A03D128781B78C01A55
:1035700070BD013A002CEED1F7E7104670BD30B5B2
:10358000026811F8015B541C55B153782246A3F12F
:103590004104192C98BF2033AB42F2D0002030BD3B
:1035A0000460012030BD2DE9F0410D46904602F047
:1035B000EFFC06460F46B8F1000F0FD0C5F30A53D3
:1035C000C3F16B03002B09DD1B0503F17F5404F5E8
:1035D0004013002203F078F9BDE8F0813046394607
:1035E000BDE8F081000000002DE9F04F002399B004
:1035F00081460391119214934FF0000A4FF0000B93
:103600001391139A13780D2B05D8092B14D2002B84
:1036100000F0AA8113E02B2B07D02D2B02D0202BFA
:103620000DD109E001260E9601E000270E97531CEC
:10363000139353782BB997E101321392E1E70026F7
:103640000E96139C2378302B5AD16378582B01D0D7
:10365000782B49D10E9F14AB00930197484613A9CC
:10366000994A15AB01F062FE10F00706054600F01E
:10367000A185062E02D10134139477E1149A3AB150
:1036800016A8352102F071FD4846149902F0E0F9C0
:10369000159A062E21D8DFE806F0040D08171C0D38
:1036A00004004FF0000BDA4617E0DDF858A0DDF813
:1036B0005CB012E0179B02F2334223F48013DDF872
:1036C00058A043EA025B08E0DFF800B24FF0000ABE
:1036D00003E06FF0004B4FF0FF3A2B0740F16A8593
:1036E0004BF0004B00F066BD139B5A1C13925B78A5
:1036F000302BF9D0002B00F05D850123079301E00A
:1037000000260796139F4FF000080997CDF8188000
:103710004446139E3578A5F13003DAB2092A10D851
:10372000082CD8BF069F4FF00A02D8BF02FB07370C
:1037300006F10106D4BF069702FB08380134139640
:10374000E7E7484602F0C4F80768484602F0C0F8C8
:103750000068FFF7F6FE394602463046FFF7F9FEED
:10376000064628B100232A46194625469C465DE0B8
:103770004846139D02F0ACF80068FFF7E2FE2B18F4
:1037800013932A5C002C45D12346302A05D1139A85
:103790000133511C13915278F7E7A2F13101082946
:1037A00040D8139E1946002309961D46303A03F16E
:1037B000010029D001446E1C771B874210DA771E66
:1037C000082F06DC069F4FF00A0C0CFB07F7069744
:1037D00004E0102EDCBF0A2707FB08F80136EBE7F0
:1037E000002BACBFEB182B1C082B03F1010505DCEB
:1037F000069E0A2303FB0626069604E0102DDCBF76
:103800000A2303FB08280020139B5A1C13925A78A2
:10381000034602E0254633463146A2F1300009282E
:10382000C4D901E0002529464FF0010C22F0200008
:1038300045284FD125B91BB9079F002F00F0948070
:10384000139E721C1392727803962B2A04D02D2A91
:1038500005D000200F9008E000270F9701E001221B
:103860000F92039EB21C1392B278A2F13006092E79
:103870002ED8302A04D1139A561C13965278F8E7A2
:10388000A2F13106082E25D8139FA2F13006089721
:10389000139A501C139052780A90A2F13000092814
:1038A00004D80A2707FB0626303EF1E70A9F08984E
:1038B0003F1A082F44F61F6702DCBE42B8BF3746E6
:1038C0000F9840B17F4206E0007800000000F07FD2
:1038D000039E13960027002D4CD1002B40F06A84E4
:1038E000079F002F40F06684BCF1000F3CD14E2AA8
:1038F0001BD002DC492A05D036E0692A02D06E2AA4
:1039000013D031E013A8A849FFF739FE60B3139B29
:1039100013A8013BA5491393FFF731FE10B9139B80
:1039200001331393DFF8A0B21AE013A8A049FFF700
:1039300026FEC8B1139B1B78282B0FD113A89D49D5
:1039400016AA01F035FF052808D1179BDDF858A00D
:1039500043F0FF4343F4E00B00F02CBCDFF86CB203
:103960004FF0000A00F026BC039B139300260E962E
:1039700000F020BC102DB4BFAC464FF0100C791AEB
:103980000698CDF808C0079102F028FFDDF808C0BE
:10399000002C08BF2C46BCF1090F82468B4615DD72
:1039A000854B03EBCC0353E9122302F08DFF06464F
:1039B00040460F4602F012FF02460B46304639469B
:1039C00002F0D0FDDDF808C082468B460F2D37DCB3
:1039D000079F002F00F0EE8324DD162F08DC764FC2
:1039E000079E524607EBC607D7E900015B4614E085
:1039F000079FC5F125039F4222DC6F4CC5F10F05DF
:103A000004EBC5037D1BD3E9000152465B4604EB82
:103A1000C50402F059FFD4E9002302F055FF8246A5
:103A20008B46C7E3079E16F1160F09DB624F50461F
:103A3000A7EBC6075946D7E9002303F06FF8EEE776
:103A4000079FCCEB0508B844B8F1000F5DDD18F016
:103A50000F030AD0584A02EBC303D3E900015246D0
:103A60005B4602F031FF82468B4638F00F0800F0CB
:103A7000C080B8F59A7F0FDD00242546099406948E
:103A8000099E2223C9F80030DFF83CB14FF0000A4C
:103A9000002E40F07B838DE34FEA281850465946AC
:103AA0000026B8F1010F0DDD18F0010F06D0434BD1
:103AB00003EBC603D3E9002302F006FF01364FEA09
:103AC0006808EEE73D4B8246A1F1547B03EBC60646
:103AD00052465B46D6E9000102F0F6FE21F00043B3
:103AE0008B461B0D36491B058B428246C4D8A1F577
:103AF00080118B4206D90027DFF8D4B04FF0FF3A8F
:103B0000039778E00BF1547B73E072D0C8F10008A2
:103B100018F00F030AD0284A504602EBC303594657
:103B2000D3E9002302F0FAFF82468B465FEA2818A9
:103B30005FD0B8F11F0F04DD0024254609940694D8
:103B400023E118F0100F14BF6A2700271D4E0397BA
:103B500050465946B8F1000F0ADD18F0010F03D0A6
:103B6000D6E9002302F0B0FE4FEA68080836F1E714
:103B7000039E82468B469EB3C1F30A53C3F16B0387
:103B8000002B2DDD1F2B25DD342B4FF0000A02DD2D
:103B90004FF05C7B24E0203B4FF0FF3101FA03F350
:103BA00003EA0B0B1CE000BF9E7700002C7900009D
:103BB000A67700001478000040790000087A000021
:103BC0000000A07CD87700000000F07F0000F8FF24
:103BD000FFFFEF7F4FF0FF3202FA03F303EA000A20
:103BE000504659460022002303F0D6F80028A3D1FE
:103BF00001E000260396069F484600970999224651
:103C00002B4601F076FF099000283FF435AF079E60
:103C10000024734203EAE6730F932546099F484642
:103C2000796801F0E0FE069000283FF429AF3A6978
:103C300007F10C01023292000C30FEF7B3FB15AB1A
:103C4000009316AB0193484652465B46CDE90AAB5A
:103C500002F013FA149000283FF412AF48460121F5
:103C600001F0D6FF054600283FF40AAF079B23EA80
:103C7000E3730893159B002BC0F293800F9E089A64
:103C80001E44039F1698DB1B19186FF47F7399422B
:103C9000C0F1360080F291805B1A1F2BC3EB00004D
:103CA0004FF0010800F3818008FA03F80023CDF8F3
:103CB00040800493DDF80C80131837189844B742FD
:103CC000B4BF3B4633464345A8BF4346002B03DD04
:103CD000FF1AC3EB0808F61A0F98002872D1002FBC
:103CE00000F38A80089B002B40F09080B8F1000F11
:103CF00000F39680002E00F39D8048461499069AA2
:103D000002F0E6F8044600283FF4BAAEC6684FF069
:103D10000008C0F80C802946089602F0BCF840451F
:103D200080F29680002E40F01E82BAF1000F40F023
:103D30001A82CBF31303002B40F015822BF00043C3
:103D40001B0D1B05B3F1D66F40F20D826369002B8A
:103D50007AD021460122484602F04AF82946044614
:103D600002F099F8002840F3FE812BF00043039FF6
:103D70001B0D1B05002F00F09B80B3F1D66F00F2E6
:103D80009780B3F15C7F00F2F081099F22234FF00E
:103D9000000A4FF0000BC9F80030002F40F0F68108
:103DA00008E2089EF21A0F9E6BE7A04FCDF8408004
:103DB0007F1A08FA07F704977CE700270123049786
:103DC000109377E7294648460F9A01F0C3FF05464E
:103DD00000283FF455AE48462946149A01F021FFC9
:103DE000034600283FF44CAE48461499029301F074
:103DF0002FFE029B149372E7484614993A4601F04D
:103E0000F7FF149000287FF46DAF39E64846069915
:103E1000089A01F09FFF069000287FF467AF2FE615
:103E200048460699424601F0E3FF069000287FF4D9
:103E300061AF25E629464846324601F0D9FF0546DE
:103E400000287FF45AAF1BE62369012B81DC8AE14D
:103E500063D1089FCBF313032FB375495A468B42A6
:103E60002FD1039E51466EB1724B0BEA0303B3F19F
:103E7000D46F07D81B0DC3F16B034FF0FF3000FA6E
:103E800003F301E04FF0FF3399421AD16A4B9A4293
:103E900002D101313FF4F4AD664B4FF0000A1340FC
:103EA00003F5801B5FE163B9BAF1000F09D15CE74C
:103EB000A3F580136FEA135B6FEA0B5B4FF0FF3AD9
:103EC00051E1049B13B113EA0B0F02E0109E16EAB6
:103ED0000A0F00F04881089F50465946039A57B18F
:103EE000FFF761FB02460B46DDE90A0102F03AFBEF
:103EF00082468B4637E1FFF756FB02460B46DDE96B
:103F00000A0102F02DFB0022002382468B4602F0BC
:103F100043FF00287FF439AF25E12046294602F00F
:103F2000FEF800224FF0804306460F4602F048FF9D
:103F300088B3089810B10026404F0FE0BAF1000F87
:103F400003D1CBF313033BB90DE0BAF1010F03D159
:103F5000BBF1000F3FF419AF394F00264FF0000CB2
:103F6000DFF8D88027E0304639460022334B02F094
:103F70001DFF40B9304639460022324B02F0A4FC06
:103F80008446884603E0DDF820C0DFF8B880664646
:103F900008F100470FE0304639460022294B02F075
:103FA00093FC089E8446884616B901F1004300E060
:103FB0000B4666461F462BF00040000D224B0005C5
:103FC0009842049044D1DDE90A23ABF1547B50467A
:103FD0005946CDF808C0CDE90C2301F0D9FF0246BF
:103FE0000B463046394602F06FFC02460B465046FF
:103FF000594602F0B7FA21F000431B0D134A1B0586
:1040000093428246DDF808C00CD90B4B0D9E9E42B0
:1040100003D10C9F01373FF433ADDFF81CB04FF0F4
:10402000FF3A8FE001F1547B51E000BFE3FBFFFF5B
:10403000FFFF0F000000F07FFFFFEF7F0000F03F69
:104040000000F0BF0000E03F0000E07FFFFF9F7C2A
:10405000039830B30499B1F1D46F22D85EA3D3E9A9
:10406000002360464146CDF808C002F0A9FEDDF805
:1040700008C090B16046414602F0E8FE002808BF43
:10408000012002F0ABFB089E8446884616B901F178
:10409000004300E00B4666461F46049807F1D663CE
:1040A0001F1ADDE90A01CDF808C001F071FF0246D0
:1040B0000B463046394602F007FC02460B46DDE966
:1040C0000A0102F04FFADDF808C082468B46039FD2
:1040D000002F37D12BF000431B0D049F1B059F427F
:1040E00030D160464146CDF808C002F087FE02F0AC
:1040F00085FBDDF808C002460B466046414602F0EB
:104100002FFA089FCDE904012FB9BAF1000F02D1AF
:10411000CBF3130686B1DDE9040131A3D3E9002313
:1041200002F044FE002831D1DDE904012EA3D3E9D9
:10413000002302F059FE04E02DA3D3E9002302F08E
:1041400035FE18BB4846149901F082FC4846069992
:1041500001F07EFC4846294601F07AFC484621469B
:1041600001F076FC5AE5039E86B1234F00200C90A7
:104170000D9750465946DDE90C2302F0A5FB824617
:104180008B4619B910B92223C9F800304846149952
:1041900001F05EFC4846069901F05AFC4846294663
:1041A00001F056FC4846099901F052FC4846214668
:1041B00001F04EFC119E0EB1139B33600E9F5246D0
:1041C00017B10BF1004300E05B461046194619B0E9
:1041D000BDE8F08FAFF300800000C0FFFFFFDF41BC
:1041E0009535A094FFFFDF3F35E5AF350000E03F98
:1041F0009535A094FFFFCF3F00005039AFF300800A
:1042000084463F482DE9F04FD0F800800E463446F2
:1042100014F8015B08EB0500407800F0080000F09E
:10422000FF0708B12646F2E72D2D03D1B41C75789F
:10423000012703E02B2D04BF7578B41C33F0100068
:104240000DD1302D08D1207800F0DF00582851D151
:1042500065781023023402E0002B08BF0A23002FE8
:104260000CBF6FF0004A4FF0004ABAFBF3F903FBB2
:1042700019AA0026304608EB050B9BF801B01BF08D
:10428000040F01D0303D0BE01BF0030B1BD0BBF142
:10429000010F14BF4FF0570B4FF0370BCBEB050559
:1042A0009D4210DAB6F1FF3F0AD0484506D801D149
:1042B000554503DC03FB0050012601E04FF0FF36BB
:1042C00014F8015BD7E7731C0CD1002F4FF02203C9
:1042D0000CBF6FF000404FF00040CCF800302AB91E
:1042E000BDE8F08F07B1404242B106B1611E1160D6
:1042F000BDE8F08F002B08BF0823B0E7BDE8F08FC2
:104300003801001070B50E461446054618B1836991
:104310000BB9FDF761FF224B9C4201D16C6808E0AC
:10432000204B9C4201D1AC6803E01F4B9C4208BF6C
:10433000EC68A369A360A3891A0709D523693BB177
:1043400023692068F6B2C01A636998420FDB08E05F
:104350002846214600F03CF80028F1D04FF0FF300D
:1043600070BD28462146FDF7BBFE0028F6D1A368A4
:104370000130013BA36023685A1C22601E706369F0
:10438000984204D0A389DB0707D50A2E05D1284619
:104390002146FDF7A5FE0028E0D1304670BD00BFE4
:1043A00020770000407700006077000038B5074CA8
:1043B000054600202060084611461A46FCF73AF8E8
:1043C000431C02D1236803B12B6038BD9404001054
:1043D000324B70B51D6806460C4625B1AB6913B962
:1043E0002846FDF7F9FE2E4B9C4201D16C6808E08F
:1043F0002C4B9C4201D1AC6803E02B4B9C4208BF84
:10440000EC68A28993B2190720D4DD0605D40923EC
:1044100042F040023360A2813BE0580712D5616B45
:1044200041B104F14403994202D03046FDF7CCFF7C
:1044300000236363A38923F02403A3810023636023
:1044400023692360A38943F00803A38123694BB93F
:10445000A38903F42073B3F5007F03D030462146CF
:1044600001F04CFAA38913F0010205D00022A260EA
:1044700062695242A26103E0990758BF6269A26073
:1044800022694AB903F0800080B230B143F04003A2
:10449000A3814FF0FF3070BD002070BD34010010CB
:1044A0002077000040770000607700002DE9F84396
:1044B000294D06462C680F46914698460CB9274C64
:1044C0002C6063681F2B12DD254B1BB94FF0FF30AA
:1044D000BDE8F8838C20FDF755FF04460028F5D091
:1044E0002A680023026043602860C0F888304EB319
:1044F000D4F8880078B91A4B002BE7D04FF48470B9
:10450000FDF740FF0028E1D00023C0F80031C0F8DB
:104510000431C4F888006568012340F8259000EB59
:10452000850203FA05F5D0F80031022E43EA0503AF
:10453000C0F80031C2F8808004D1D0F804311D43A6
:10454000C0F80451636800205A1C0233626044F8CA
:104550002370BDE8F88300BF88040010FC0300103E
:104560008523000038B5064C002305460846236025
:10457000FBF74AFF431C02D1236803B12B6038BD0F
:10458000940400102DE9F74F03690C698046A3429B
:10459000C0F28380013CA20001F1140700F1140570
:1045A0009146009257F824602A44019255F824203D
:1045B0000136B2FBF6F6B944002E3BD04FF0000EA8
:1045C0003A462846F34652F804CB03681FFA8CFAA1
:1045D0004FEA1C4C0AFB06EA0CFB06FC0CEB1A4CDF
:1045E0001FFA8AFACAEB0B0B4FEA1C4E1FFA83FA2A
:1045F0001FFA8CFCDA44CCEB134C0CEB2A4C1FFA60
:104600008AFA4AEA0C4A4A454FEA2C4B40F804AB76
:10461000D9D9009AAB586BB9019A131FAB421A460D
:1046200002D8C8F8104005E01268043B002AF8D10F
:10463000013CF3E7404601F02EFC00282BDB01365D
:104640002B46002057F804CB1A681FFA8CF1411A48
:104650001FFA82FA4FEA1C4C5144CCEB124202EB97
:10466000214289B210144F4541EA024243F8042B1B
:10467000E8D955F8242005EB840362B9043BAB422A
:104680001A4602D8C8F8104005E01268043B002A18
:10469000F8D1013CF3E7304600E0002003B0BDE86C
:1046A000F08F0000000000002DE9F04F456A99B03E
:1046B0008246259CCDE9042345B91020FDF762FE12
:1046C000CAF82400456085600560C560DAF82430CA
:1046D000196861B15B6801224B6002FA03F350462E
:1046E0008B6001F0B5F9DAF8243000221A600599E0
:1046F000002905DA012321F000422360059201E040
:1047000000232360059F9C4A27F000431B0D1B05D7
:1047100093421DD12499049A42F20F730B6042B95F
:10472000964B974AC7F3130000280CBF1046184653
:1047300000E09248269F002F00F05485C37813B103
:1047400000F1080300E0C31C269F3B6000F04ABD57
:10475000DDE90445002220462946002302F01CFB27
:10476000804658B1249F01233B60269F002F00F014
:10477000368584483860013800F034BD17AB0093AB
:1047800016AB0193504622462B4601F076FCC7F348
:104790000A5683465EB1C5F3130343F07F532046A8
:1047A00043F44011A6F2FF36CDF84C801CE0179B75
:1047B000169E1E446FF482639E4209DB04991F33E8
:1047C00006F212409B1B21FA00F09F40384304E0A0
:1047D0006D48049A801B02FA00F001F0FFFF0127E8
:1047E000A1F1F871013E13970022684B01F0B8FE69
:1047F0005BA3D3E9002302F067F85BA3D3E90023AE
:1048000001F0B0FE044630460D4601F0F7FF58A314
:10481000D3E9002302F058F802460B462046294609
:1048200001F0A0FE04460D4602F0E8FA2946814652
:1048300000222046002302F0B9FA58B1484601F0A0
:10484000DDFF02460B462046294602F0A5FA08B9CC
:1048500009F1FF39B9F1160F0DD84D4B03EBC90320
:10486000D3E90001DDE9042302F0BEFA30B109F119
:10487000FF39002700E00127129700E01290169BF5
:104880009E1B013E099604D5774208970027099799
:1048900001E000270897B9F1000F07DB099FCDF869
:1048A0003C904F44099700270C9708E0089FC9EBFC
:1048B00007070897C9F100070C9700270F97229F59
:1048C000092F29D8052FC4BF043F2297229FC8BFB4
:1048D0000025A7F10203D8BF0125032B21D8DFE86B
:1048E00003F0060F0204012702E0012709E0002778
:1048F0000D97239F002F1EDD0B9707973B461FE068
:1049000000270D97239F4F440B9701373B4607978E
:10491000012BB8BF012313E00125002722970D9535
:1049200001E001270D974FF0FF370B9707970027FE
:104930001223239704E001270B9707973B46239701
:10494000DAF8244000226260042101F114029A4244
:1049500020D86268490001326260F6E7AFF3008058
:1049600061436F63A787D23FB3C8608B288AC63F75
:10497000FB799F501344D33F0000F07F3279000051
:1049800029790000AA770000EEFBFFFF0000F83F46
:10499000407900005046616801F025F8DAF82430CB
:1049A0002060079F1B680E2F0A9300F25981002D8B
:1049B00000F05681B9F1000FDDE90423CDE91023A1
:1049C00031DD9E4A09F00F034FEA291602EBC303BB
:1049D000F006D3E900450CD5DDE91001984B06F04F
:1049E0000F06D3E9082302F099F80327CDE9040163
:1049F00000E00227DFF8488276B1F10708D5D8E950
:104A000000232046294601F05FFF013704460D468A
:104A1000761008F10808EFE7DDE9040122462B468D
:104A200002F07CF81BE0C9F10005DDB1834B05F015
:104A30000F0203EBC203DDE91001D3E9002301F00B
:104A400043FF7F4C2D1102274DB1EA0704D5D4E96D
:104A50000023013701F038FF6D100834F4E7CDE989
:104A6000040100E00227129BE3B1DDE904450022C6
:104A700020462946734B02F099F998B1079989B1FC
:104A80000B9A002A40F3E88009F1FF330E93294680
:104A9000204600226C4B01F017FF0137CDE90401DD
:104AA0000B9D02E0079DCDF83890384601F0A6FE38
:104AB000DDE9042301F008FF0022644B01F052FD00
:104AC0000646A1F15078CDB9DDE904010022604B22
:104AD00001F046FD32464346CDE9040102F084F977
:104AE000002840F04482DDE90401324608F1004329
:104AF00002F05CF9002840F03382ADE04F4B0D9995
:104B00006A1E03EBC20300294BD0D3E90023002027
:104B1000504902F003F83246434601F021FDDDE939
:104B20000467CDE90401DDF828803946304602F0FB
:104B300065F9044601F062FE02460B4630463946EE
:104B400001F00EFDDDE90423303408F8014B064680
:104B50000F4602F02BF9002840F02F8332463B46E7
:104B60000020384901F0FCFCDDE9042302F01EF9C5
:104B7000002840F0D4800A9AC2EB0803AB426BDAFB
:104B8000DDE904010022304B01F09EFE0022CDE958
:104B900004012D4B3046394601F096FE06460F467D
:104BA000C3E7D3E900013246434601F08DFEDDE95B
:104BB0000467DDF82880CDE914010A9CA844394631
:104BC000304602F01BF9054601F018FE02460B467E
:104BD0003046394601F0C4FC303504F8015B4445E9
:104BE00006460F4622D100221A4BDDE9140101F0DE
:104BF000B9FC02460B463046394602F0F5F800286B
:104C000040F08D80DDE914230020124901F0A8FC5A
:104C100002460B463046394602F0C8F8E0B1A046DD
:104C200018F8013C013C302BF9D0C6E20022064BBB
:104C300001F04AFE06460F46C1E700BF407900007A
:104C4000087A00000000F03F0000244000001C40F3
:104C5000000014400000E03FDDE91023CDE904230B
:104C6000179B002B7CDBB9F10E0F79DC914B239F56
:104C700003EBC903002FD3E9004514DA079F002F87
:104C800011DC40F06C812046294600228A4B01F05D
:104C90001BFEDDE9042302F09DF8079D2C46002849
:104CA00040F05F8166E1DDF82880DDE90467224697
:104CB0002B463046394601F031FF02F09FF8049050
:104CC00001F09CFD22462B4601F0FEFD02460B46FC
:104CD0003046394601F044FC049F024607F1300695
:104CE0000A9F08F8016BC7EB0806079F0B46BE42F8
:104CF00029D101F037FC22462B4606460F4602F02A
:104D000073F870B93046394622462B4602F044F813
:104D1000002800F05482049FFB0702D44FE2DDF824
:104D200038904346984618F8012C013B392A06D1A1
:104D30000A9F9F42F6D1302209F101093A701A7890
:104D400001321A703BE200225C4B01F0BDFD0022F3
:104D5000002306460F4602F01FF80028A7D02EE2D7
:104D60000D9F002F30D0229F012F0ADC139F17B117
:104D700003F2334302E0169BC3F136030C9D089EF9
:104D800016E0079F7D1E0C9FAF4201DB7D1B06E0F6
:104D90000C9F0C95EB1B0F9F00251F440F97079F3F
:104DA000002F03DA08990023CE1B01E0089E079B21
:104DB000089F50461F440897099F01211F440997E7
:104DC00000F026FF044602E00C9D089E0D9C6EB18B
:104DD000099F002F0ADD3B46089FB342A8BF334618
:104DE000FF1A0897099FF61AFF1A09970C9F002FC0
:104DF00020DD0D9FC7B1002D10DD21462A4650460B
:104E000000F0A8FF04465A462146504600F009FF2C
:104E100059460746504600F01BFEBB460C9F7A1BC6
:104E200008D05046594602E00C9A5046594600F0C8
:104E300091FF83465046012100F0EAFE0F9F054690
:104E4000002F05DD294650463A4600F083FF05460F
:104E5000229F012F12DC049981B9059AC2F3130332
:104E600073B922F000473F0D3F0557B1089F013746
:104E70000897099F01370997012702E0002700E002
:104E8000049F0F9941B12B6905EB8303186900F06A
:104E900072FEC0F1200000E00120099B034413F0E2
:104EA0001F030FD0C3F12002042A09DDC3F11C0344
:104EB00009E000BF407900000000144000002440D9
:104EC00008D013461C33089A09991A4419440892C9
:104ED0001E440991089A002A04DD5946504600F004
:104EE00087FF8346099B002B05DD294650461A465D
:104EF00000F07EFF05461299E1B15846294600F0C0
:104F0000CAFF002816DA59460A225046002300F04C
:104F1000B6FD0D9A09F1FF3983464AB121460023B7
:104F200050460A2200F0ABFD0B9B0446079301E0BC
:104F30000B990791079A002A26DC229B022B23DD7E
:104F40007AB929460522079B504600F098FD054690
:104F50002946584600F09FFF00280BDC01E00025A1
:104F60002C46239FDDF828806FEA070909E0DDF869
:104F700038902C460A9F312307F101083B7009F154
:104F800001092746002407E10D99002900F0BB80A4
:104F9000002E05DD21465046324600F029FF04462A
:104FA0009FB16168504600F01EFD2269064602323C
:104FB00004F10C0192000C30FDF7F4F95046314633
:104FC000012200F015FF074600E027460A9E294609
:104FD0005846FFF7D7FA214600F1300C8046584674
:104FE000CDF808C000F057FF3A46089029465046D1
:104FF00000F06EFFC3680246DDF808C04BB91146E9
:105000005846039200F047FF039A0346DDF808C0B4
:1050100000E00123504611460393CDF808C000F08C
:1050200017FD039BDDF808C063B9229A52B90499B1
:1050300001F0010232B9BCF1390F35D0089B002BC9
:1050400024DC25E00899002902DA002B08DC1FE0A7
:1050500023D1229A0ABB049901F00102EAB9F4E7CC
:10506000594601225046CDF808C000F0C1FE29463D
:10507000834600F010FF0028DDF808C003DC07D1EC
:105080001CF0010F04D0BCF1390F0DD008F1310C28
:1050900006F1010886F800C07EE0002B06F1010849
:1050A00009DDBCF1390F03D13923337001365BE0E0
:1050B0000CF1010368E00A9A0799C2EB080346461F
:1050C0008B4206F801CC3CD059460A2200235046B8
:1050D00000F0D5FCBC428346214650464FF00A0200
:1050E0004FF0000304D100F0CAFC044607466EE707
:1050F00000F0C5FC394604460A225046002300F061
:10510000BEFC074663E70D9E58462946FFF73AFA6C
:105110000A9F00F1300C07F806C0079F0136BE4217
:1051200007DB0A9E012FACBFF61901362746002483
:1051300007E0594650460A22002300F0A0FC8346AF
:10514000E2E7594601225046CDF808C000F050FE73
:105150002946834600F09FFE0028DDF808C003DCE6
:1051600014D11CF0010F11D016F8013CB046392BB8
:1051700006F1FF3607D10A99B142F5D1312309F181
:1051800001090B7008E00133337005E0B04618F8F0
:10519000013C013E302BF9D05046294600F058FC26
:1051A0006FB12CB1BC4203D05046214600F050FCF8
:1051B0005046394600F04CFC01E0DDF8389050468E
:1051C000594600F045FC0023249F88F8003009F17F
:1051D00001033B60269F27B1C7F8008001E0034828
:1051E00000E00A9819B0BDE8F08F00BFA977000071
:1051F00070B505460C4609B9002070BD18B1836929
:105200000BB9FCF7E9FF214B9C4201D16C6808E027
:105210001F4B9C4201D1AC6803E01E4B9C4208BF6F
:10522000EC68B4F90C30002BE6D028462146FCF798
:10523000D3FE236B06463BB12846216A984736EADF
:10524000200628BF4FF0FF36A3891B0603D528464A
:105250002169FDF7B9F8616B41B104F1440399424A
:1052600002D02846FDF7B0F800236363A16C21B19A
:105270002846FDF7A9F80023A364FDF717F80023DB
:10528000A381FDF714F8304670BD00BF2077000001
:105290004077000060770000F0B506694B11B3421B
:1052A00000F1140226DA11F01F0102EB860602EB70
:1052B000830401D1134616E052F82350C1F1200CAB
:1052C000CD4004341346B44209D2276807FA0CF7DC
:1052D0003D4343F8045B54F8045BCD40F3E71D60A5
:1052E0004DB1043307E0B44205D254F8041B43F82F
:1052F000041BF8E713469B1A9B10036103B9436133
:10530000F0BDA0F13003092B01D820380AE0A0F14C
:105310006103052B01D8473804E0A0F14103052BB8
:1053200002D82738C0B27047002070472DE9F04FEF
:1053300089B0059106939046039000F0C9FA006881
:105340004FF0000B0490FEF7FCF8049B0599034412
:1053500013F8013C029007930B6802331F4613F8C1
:10536000010B302802D10BF1010BF7E7FFF7C9FF62
:105370000646F8B938460499029AFEF7EAF800287A
:1053800039D1029B029DF85C3D44FFF7BAFF00282B
:1053900033D02B4618781F46302803F10103F9D08B
:1053A000FFF7AFFFD0F1010438BF00242E464FF0C5
:1053B000010B01E000242646B9464D46287809F144
:1053C0000109FFF79EFF0028F7D128460499029AA9
:1053D000FEF7BFF858B95EB9029E2E44B1464D465D
:1053E000287809F10109FFF78CFF0028F7D136B1C1
:1053F000761BB60003E03D4600E0064601242B780C
:10540000502B01D0702B34D16B782B2B05D02D2B4A
:1054100005D005F10109002104E0002100E001218F
:1054200005F1020999F800000191FFF76AFF431E98
:10543000DBB2182B01991CD8A0F1100A09F1010365
:10544000994699F80000013301910093FFF759FF45
:10545000421ED2B2182A0199009B05D80A2202FBEB
:105460000A0AAAF1100AEBE709B1CAF1000A564488
:1054700000E0A9460599C1F800902CB1BBF1000FDE
:105480000CBF062000207DE1EB1B013B2146072BD2
:1054900002DD01315B10FAE7039800F0A4FA4FF047
:1054A000000900F1140A04465346CB46BD4233D9E5
:1054B0006A1E0592079915F8012C8A4209D0BBF1A2
:1054C000200F17D1C3F800904FF000090433CB46EA
:1054D00010E0029A0599C2F1010C8C44BC45EED350
:1054E000604604998DE80810FEF733F89DE808102F
:1054F00080B1E4E715F8010C0093FFF702FF00F01C
:105500000F0000FA0BF0DDF814C0009B49EA000917
:105510000BF1040B6546C9E743F8049BCAEB030390
:105520009B10236148465F0100F025FBD8F800502E
:10553000381AA84226DD471B3946204600F02EFEC9
:10554000C8B17B1E03F01F014FF0010909FA01F1F8
:105550005A115AF8222011420ED04B4502DC4FF06E
:10556000020909E02046B91E00F018FE0028F6D016
:105570004FF0030900E0814620463946FFF78CFED4
:105580003E440CE009DA2F1A214603983A4600F00F
:105590002FFCF61B044600F1140A4FF00009D8F85E
:1055A00008309E4208DD0398214600F051FA129A15
:1055B00000231360A320E5E0D8F804309E4254DABB
:1055C0009E1BAE422EDBD8F80C30022B1AD0032BD8
:1055D0001CD0012B1DD1AE421BD1012D0BDCD8F804
:1055E0000430069962200B6001232361CAF8003061
:1055F000129B1C60C6E02046691E00F0CFFD00280B
:10560000EDD106E0139B002BE9D002E0139B002BA9
:10561000E5D10398214600F01BFA129900230B6094
:105620005020AFE0771EB9F1000F07D1002F07DD42
:105630002046394600F0B2FD814601E04FF00109F5
:105640007B11012207F01F0702FA07F75AF82330EF
:1056500031461F42204618BF49F00209AD1BFFF733
:105660001BFE0227D8F8046000E00127B9F1000F03
:1056700000F08380D8F80C30022B0ED0032B10D012
:10568000012B78D119F0020F75D0DAF8003049EA11
:10569000030919F0010F07D16DE0139BC3F101035A
:1056A0001393139B002B66D0D4F8109004F11403CD
:1056B0004FEA890A03EB0A01184653F8042BB2F1AA
:1056C000FF3F02D00132026021E000228B4243F80A
:1056D000042CF1D3A368994512DB6168039801316A
:1056E00000F081F9226904F10C0102328346920034
:1056F0000C30FCF757FE2146039800F0A9F95C46F0
:1057000023695A1C226104EB830301225A61022F90
:1057100004F1140311D1D8F80020013A954227D1A1
:105720006A11012105F01F0501FA05F553F8223031
:105730001D420CBF02270F461AE022694A450ADDC6
:1057400020460121FFF7A8FDD8F8083001369E4217
:105750003FF729AF0BE015F01F0508D0534453F86D
:10576000040C00F008FAC5F12005A842E8DB012787
:1057700047F0200701E047F01007129B38461C60F5
:10578000069B1E6009B0BDE8F08FC2F108029200CE
:1057900070B5C2F12004056850F8043F03FA04F61E
:1057A000D3403543884240F8045C0360F3D370BDB6
:1057B0002DE9F04F0B6885B05E11039013F01F03C5
:1057C00002EB86060293039B18BF0436A6F1040879
:1057D0001546D3F80090002246F8042C474644466C
:1057E0009246934699F8011000293AD008468DE870
:1057F0000600FFF786FD9DE80600D8B9202912D8DB
:10580000DA452BDABC4205D2072A03DC20463946AA
:10581000FFF7BBFFAC4220D9271F002244F8042C1D
:10582000DA463C461AE029294CD1039B09F10201D2
:10583000196016E00132082A0BF1010B06DDAC42BB
:105840000CD9002244F8042C043C0122216800F009
:105850000F0040EA0111216000E0082209F101096E
:10586000C0E7BBF1000F2DD0BC4205D2072A03DCF4
:1058700020463946FFF789FFAC420CD92B4654F835
:10588000042B444543F8042BF9D9002243F8042B98
:105890004345FAD90DE0029B5BB1C3F120094FF0FB
:1058A000FF3323FA09F956F8043C03EA090346F8E2
:1058B000043C56F8043C043E33B9B542F9D1012307
:1058C0002B6001E0042000E0052005B0BDE8F08F6A
:1058D000004870473C01001038B5074C05460020D1
:1058E0002060084611461A46FAF724FE431C02D1EE
:1058F000236803B12B6038BD94040010F0B58B8988
:1059000091B09E0705460C4625D4B1F90E1000292A
:1059100008DAA389002713F0800F14BF40264FF444
:1059200080660DE001AA00F0EBFD0028F1DB029F8C
:105930004FF4806607F47047B7F500514F424F416E
:1059400028463146FCF784FD60B9A3899A051DD429
:1059500043F00203A38104F1470323602361012381
:10596000636113E00A4BAB62A389206043F08003BC
:10597000A381206166614FB12846B4F90E1000F092
:10598000D1FD18B1A38943F00103A38111B0F0BD8B
:105990005921000010B5C9B202449042034605D017
:1059A0001C7801308C42F8D1184610BD002010BD83
:1059B000814270B501D300230EE08C18A042FAD2C8
:1059C0008518134613F1FF3305D351426618F65C70
:1059D0002944CE54F6E770BD934203D0CC5CC45446
:1059E0000133F9E770BD70B5456A04460E463DB90E
:1059F0001020FCF7C7FC6062456085600560C560EB
:105A0000656AEB6843B1636ADA6852F8260078B1D8
:105A1000016842F8261017E020460421212200F0F8
:105A2000E1FB636AE860DB68002BECD1002070BD0D
:105A3000012101FA06F56A1D2046920000F0D2FB12
:105A40000028F3D04660856000220261C26070BD0C
:105A500070B5446A06460D463CB91020FCF792FC2E
:105A60007062446084600460C4603DB1736A6A68B7
:105A7000DB6853F82210296043F8225070BD2DE9ED
:105A8000F0410C461E460D69074614310023086894
:105A900001331FFA80FC000C02FB0C6C504300EB3E
:105AA0001C401FFA8CFC060CAB420CEB004041F88A
:105AB000040BECDBD6B1A3689D4212DB616838466B
:105AC0000131FFF790FF226904F10C010232804698
:105AD00092000C30FCF766FC21463846FFF7B8FF11
